{
  "_format": "hh-sol-artifact-1",
  "contractName": "PublicStableSwapPool",
  "sourceName": "contracts/PublicStableSwapPool.sol",
  "abi": [
    {
      "inputs": [
        {
          "internalType": "address[]",
          "name": "_tokens",
          "type": "address[]"
        },
        {
          "internalType": "uint256",
          "name": "_fee",
          "type": "uint256"
        }
      ],
      "stateMutability": "nonpayable",
      "type": "constructor"
    },
    {
      "inputs": [
        {
          "internalType": "address",
          "name": "spender",
          "type": "address"
        },
        {
          "internalType": "uint256",
          "name": "allowance",
          "type": "uint256"
        },
        {
          "internalType": "uint256",
          "name": "needed",
          "type": "uint256"
        }
      ],
      "name": "ERC20InsufficientAllowance",
      "type": "error"
    },
    {
      "inputs": [
        {
          "internalType": "address",
          "name": "sender",
          "type": "address"
        },
        {
          "internalType": "uint256",
          "name": "balance",
          "type": "uint256"
        },
        {
          "internalType": "uint256",
          "name": "needed",
          "type": "uint256"
        }
      ],
      "name": "ERC20InsufficientBalance",
      "type": "error"
    },
    {
      "inputs": [
        {
          "internalType": "address",
          "name": "approver",
          "type": "address"
        }
      ],
      "name": "ERC20InvalidApprover",
      "type": "error"
    },
    {
      "inputs": [
        {
          "internalType": "address",
          "name": "receiver",
          "type": "address"
        }
      ],
      "name": "ERC20InvalidReceiver",
      "type": "error"
    },
    {
      "inputs": [
        {
          "internalType": "address",
          "name": "sender",
          "type": "address"
        }
      ],
      "name": "ERC20InvalidSender",
      "type": "error"
    },
    {
      "inputs": [
        {
          "internalType": "address",
          "name": "spender",
          "type": "address"
        }
      ],
      "name": "ERC20InvalidSpender",
      "type": "error"
    },
    {
      "inputs": [
        {
          "internalType": "address",
          "name": "owner",
          "type": "address"
        }
      ],
      "name": "OwnableInvalidOwner",
      "type": "error"
    },
    {
      "inputs": [
        {
          "internalType": "address",
          "name": "account",
          "type": "address"
        }
      ],
      "name": "OwnableUnauthorizedAccount",
      "type": "error"
    },
    {
      "inputs": [
        {
          "internalType": "address",
          "name": "token",
          "type": "address"
        }
      ],
      "name": "SafeERC20FailedOperation",
      "type": "error"
    },
    {
      "anonymous": false,
      "inputs": [
        {
          "indexed": true,
          "internalType": "address",
          "name": "owner",
          "type": "address"
        },
        {
          "indexed": true,
          "internalType": "address",
          "name": "spender",
          "type": "address"
        },
        {
          "indexed": false,
          "internalType": "uint256",
          "name": "value",
          "type": "uint256"
        }
      ],
      "name": "Approval",
      "type": "event"
    },
    {
      "anonymous": false,
      "inputs": [
        {
          "indexed": true,
          "internalType": "address",
          "name": "previousOwner",
          "type": "address"
        },
        {
          "indexed": true,
          "internalType": "address",
          "name": "newOwner",
          "type": "address"
        }
      ],
      "name": "OwnershipTransferred",
      "type": "event"
    },
    {
      "anonymous": false,
      "inputs": [
        {
          "indexed": true,
          "internalType": "address",
          "name": "from",
          "type": "address"
        },
        {
          "indexed": true,
          "internalType": "address",
          "name": "to",
          "type": "address"
        },
        {
          "indexed": false,
          "internalType": "uint256",
          "name": "value",
          "type": "uint256"
        }
      ],
      "name": "Transfer",
      "type": "event"
    },
    {
      "inputs": [
        {
          "internalType": "uint256[]",
          "name": "amounts",
          "type": "uint256[]"
        }
      ],
      "name": "addLiquidity",
      "outputs": [],
      "stateMutability": "nonpayable",
      "type": "function"
    },
    {
      "inputs": [
        {
          "internalType": "address",
          "name": "owner",
          "type": "address"
        },
        {
          "internalType": "address",
          "name": "spender",
          "type": "address"
        }
      ],
      "name": "allowance",
      "outputs": [
        {
          "internalType": "uint256",
          "name": "",
          "type": "uint256"
        }
      ],
      "stateMutability": "view",
      "type": "function"
    },
    {
      "inputs": [
        {
          "internalType": "address",
          "name": "spender",
          "type": "address"
        },
        {
          "internalType": "uint256",
          "name": "value",
          "type": "uint256"
        }
      ],
      "name": "approve",
      "outputs": [
        {
          "internalType": "bool",
          "name": "",
          "type": "bool"
        }
      ],
      "stateMutability": "nonpayable",
      "type": "function"
    },
    {
      "inputs": [
        {
          "internalType": "address",
          "name": "account",
          "type": "address"
        }
      ],
      "name": "balanceOf",
      "outputs": [
        {
          "internalType": "uint256",
          "name": "",
          "type": "uint256"
        }
      ],
      "stateMutability": "view",
      "type": "function"
    },
    {
      "inputs": [
        {
          "internalType": "uint256",
          "name": "i",
          "type": "uint256"
        }
      ],
      "name": "balances",
      "outputs": [
        {
          "internalType": "uint256",
          "name": "",
          "type": "uint256"
        }
      ],
      "stateMutability": "view",
      "type": "function"
    },
    {
      "inputs": [],
      "name": "decimals",
      "outputs": [
        {
          "internalType": "uint8",
          "name": "",
          "type": "uint8"
        }
      ],
      "stateMutability": "view",
      "type": "function"
    },
    {
      "inputs": [],
      "name": "fee",
      "outputs": [
        {
          "internalType": "uint256",
          "name": "",
          "type": "uint256"
        }
      ],
      "stateMutability": "view",
      "type": "function"
    },
    {
      "inputs": [],
      "name": "getBalances",
      "outputs": [
        {
          "internalType": "uint256[]",
          "name": "",
          "type": "uint256[]"
        }
      ],
      "stateMutability": "view",
      "type": "function"
    },
    {
      "inputs": [],
      "name": "getTokenCount",
      "outputs": [
        {
          "internalType": "uint256",
          "name": "",
          "type": "uint256"
        }
      ],
      "stateMutability": "view",
      "type": "function"
    },
    {
      "inputs": [
        {
          "internalType": "uint256",
          "name": "i",
          "type": "uint256"
        },
        {
          "internalType": "uint256",
          "name": "j",
          "type": "uint256"
        },
        {
          "internalType": "uint256",
          "name": "dx",
          "type": "uint256"
        }
      ],
      "name": "get_dy",
      "outputs": [
        {
          "internalType": "uint256",
          "name": "",
          "type": "uint256"
        }
      ],
      "stateMutability": "view",
      "type": "function"
    },
    {
      "inputs": [],
      "name": "name",
      "outputs": [
        {
          "internalType": "string",
          "name": "",
          "type": "string"
        }
      ],
      "stateMutability": "view",
      "type": "function"
    },
    {
      "inputs": [],
      "name": "owner",
      "outputs": [
        {
          "internalType": "address",
          "name": "",
          "type": "address"
        }
      ],
      "stateMutability": "view",
      "type": "function"
    },
    {
      "inputs": [
        {
          "internalType": "uint256",
          "name": "_amount",
          "type": "uint256"
        },
        {
          "internalType": "uint256[]",
          "name": "min_amounts",
          "type": "uint256[]"
        }
      ],
      "name": "remove_liquidity",
      "outputs": [
        {
          "internalType": "uint256[]",
          "name": "",
          "type": "uint256[]"
        }
      ],
      "stateMutability": "nonpayable",
      "type": "function"
    },
    {
      "inputs": [],
      "name": "renounceOwnership",
      "outputs": [],
      "stateMutability": "nonpayable",
      "type": "function"
    },
    {
      "inputs": [
        {
          "internalType": "uint256",
          "name": "i",
          "type": "uint256"
        },
        {
          "internalType": "uint256",
          "name": "j",
          "type": "uint256"
        },
        {
          "internalType": "uint256",
          "name": "dx",
          "type": "uint256"
        }
      ],
      "name": "swap",
      "outputs": [
        {
          "internalType": "uint256",
          "name": "",
          "type": "uint256"
        }
      ],
      "stateMutability": "nonpayable",
      "type": "function"
    },
    {
      "inputs": [],
      "name": "symbol",
      "outputs": [
        {
          "internalType": "string",
          "name": "",
          "type": "string"
        }
      ],
      "stateMutability": "view",
      "type": "function"
    },
    {
      "inputs": [
        {
          "internalType": "uint256",
          "name": "",
          "type": "uint256"
        }
      ],
      "name": "tokens",
      "outputs": [
        {
          "internalType": "address",
          "name": "",
          "type": "address"
        }
      ],
      "stateMutability": "view",
      "type": "function"
    },
    {
      "inputs": [],
      "name": "totalSupply",
      "outputs": [
        {
          "internalType": "uint256",
          "name": "",
          "type": "uint256"
        }
      ],
      "stateMutability": "view",
      "type": "function"
    },
    {
      "inputs": [
        {
          "internalType": "address",
          "name": "to",
          "type": "address"
        },
        {
          "internalType": "uint256",
          "name": "value",
          "type": "uint256"
        }
      ],
      "name": "transfer",
      "outputs": [
        {
          "internalType": "bool",
          "name": "",
          "type": "bool"
        }
      ],
      "stateMutability": "nonpayable",
      "type": "function"
    },
    {
      "inputs": [
        {
          "internalType": "address",
          "name": "from",
          "type": "address"
        },
        {
          "internalType": "address",
          "name": "to",
          "type": "address"
        },
        {
          "internalType": "uint256",
          "name": "value",
          "type": "uint256"
        }
      ],
      "name": "transferFrom",
      "outputs": [
        {
          "internalType": "bool",
          "name": "",
          "type": "bool"
        }
      ],
      "stateMutability": "nonpayable",
      "type": "function"
    },
    {
      "inputs": [
        {
          "internalType": "address",
          "name": "newOwner",
          "type": "address"
        }
      ],
      "name": "transferOwnership",
      "outputs": [],
      "stateMutability": "nonpayable",
      "type": "function"
    }
  ],
  "bytecode": "0x608060405260006009553480156200001657600080fd5b50604051620032e3380380620032e383398181016040528101906200003c91906200052c565b336040518060400160405280600c81526020017f4d697261526f757465204c5000000000000000000000000000000000000000008152506040518060400160405280600481526020017f4d524c50000000000000000000000000000000000000000000000000000000008152508160039081620000ba9190620007d3565b508060049081620000cc9190620007d3565b505050600073ffffffffffffffffffffffffffffffffffffffff168173ffffffffffffffffffffffffffffffffffffffff1603620001445760006040517f1e4fbdf70000000000000000000000000000000000000000000000000000000081526004016200013b9190620008cb565b60405180910390fd5b62000155816200023d60201b60201c565b506003825111156200019e576040517f08c379a0000000000000000000000000000000000000000000000000000000008152600401620001959062000949565b60405180910390fd5b60005b82518110156200022d57828181518110620001c157620001c06200096b565b5b602002602001015160068260038110620001e057620001df6200096b565b5b0160006101000a81548173ffffffffffffffffffffffffffffffffffffffff021916908373ffffffffffffffffffffffffffffffffffffffff1602179055508080600101915050620001a1565b508060098190555050506200099a565b6000600560009054906101000a900473ffffffffffffffffffffffffffffffffffffffff16905081600560006101000a81548173ffffffffffffffffffffffffffffffffffffffff021916908373ffffffffffffffffffffffffffffffffffffffff1602179055508173ffffffffffffffffffffffffffffffffffffffff168173ffffffffffffffffffffffffffffffffffffffff167f8be0079c531659141344cd1fd0a4f28419497f9722a3daafe3b4186f6b6457e060405160405180910390a35050565b6000604051905090565b600080fd5b600080fd5b600080fd5b6000601f19601f8301169050919050565b7f4e487b7100000000000000000000000000000000000000000000000000000000600052604160045260246000fd5b62000367826200031c565b810181811067ffffffffffffffff821117156200038957620003886200032d565b5b80604052505050565b60006200039e62000303565b9050620003ac82826200035c565b919050565b600067ffffffffffffffff821115620003cf57620003ce6200032d565b5b602082029050602081019050919050565b600080fd5b600073ffffffffffffffffffffffffffffffffffffffff82169050919050565b60006200041282620003e5565b9050919050565b620004248162000405565b81146200043057600080fd5b50565b600081519050620004448162000419565b92915050565b6000620004616200045b84620003b1565b62000392565b90508083825260208201905060208402830185811115620004875762000486620003e0565b5b835b81811015620004b457806200049f888262000433565b84526020840193505060208101905062000489565b5050509392505050565b600082601f830112620004d657620004d562000317565b5b8151620004e88482602086016200044a565b91505092915050565b6000819050919050565b6200050681620004f1565b81146200051257600080fd5b50565b6000815190506200052681620004fb565b92915050565b600080604083850312156200054657620005456200030d565b5b600083015167ffffffffffffffff81111562000567576200056662000312565b5b6200057585828601620004be565b9250506020620005888582860162000515565b9150509250929050565b600081519050919050565b7f4e487b7100000000000000000000000000000000000000000000000000000000600052602260045260246000fd5b60006002820490506001821680620005e557607f821691505b602082108103620005fb57620005fa6200059d565b5b50919050565b60008190508160005260206000209050919050565b60006020601f8301049050919050565b600082821b905092915050565b600060088302620006657fffffffffffffffffffffffffffffffffffffffffffffffffffffffffffffffff8262000626565b62000671868362000626565b95508019841693508086168417925050509392505050565b6000819050919050565b6000620006b4620006ae620006a884620004f1565b62000689565b620004f1565b9050919050565b6000819050919050565b620006d08362000693565b620006e8620006df82620006bb565b84845462000633565b825550505050565b600090565b620006ff620006f0565b6200070c818484620006c5565b505050565b5b81811015620007345762000728600082620006f5565b60018101905062000712565b5050565b601f82111562000783576200074d8162000601565b620007588462000616565b8101602085101562000768578190505b62000780620007778562000616565b83018262000711565b50505b505050565b600082821c905092915050565b6000620007a86000198460080262000788565b1980831691505092915050565b6000620007c3838362000795565b9150826002028217905092915050565b620007de8262000592565b67ffffffffffffffff811115620007fa57620007f96200032d565b5b620008068254620005cc565b6200081382828562000738565b600060209050601f8311600181146200084b576000841562000836578287015190505b620008428582620007b5565b865550620008b2565b601f1984166200085b8662000601565b60005b8281101562000885578489015182556001820191506020850194506020810190506200085e565b86831015620008a55784890151620008a1601f89168262000795565b8355505b6001600288020188555050505b505050505050565b620008c58162000405565b82525050565b6000602082019050620008e26000830184620008ba565b92915050565b600082825260208201905092915050565b7f4d6178203320746f6b656e730000000000000000000000000000000000000000600082015250565b600062000931600c83620008e8565b91506200093e82620008f9565b602082019050919050565b60006020820190508181036000830152620009648162000922565b9050919050565b7f4e487b7100000000000000000000000000000000000000000000000000000000600052603260045260246000fd5b61293980620009aa6000396000f3fe608060405234801561001057600080fd5b50600436106101365760003560e01c806370a08231116100b85780639d9892cd1161007c5780639d9892cd14610353578063a9059cbb14610383578063d40ddb8c146103b3578063dd62ed3e146103e3578063ddca3f4314610413578063f2fde38b1461043157610136565b806370a08231146102bf578063715018a6146102ef57806378a89567146102f95780638da5cb5b1461031757806395d89b411461033557610136565b8063313ce567116100ff578063313ce567146101f55780634903b0d1146102135780634de59aa3146102435780634f64b2be1461025f578063556d6e9f1461028f57610136565b8062113e081461013b57806306fdde0314610159578063095ea7b31461017757806318160ddd146101a757806323b872dd146101c5575b600080fd5b61014361044d565b6040516101509190611d7a565b60405180910390f35b6101616104e6565b60405161016e9190611e2c565b60405180910390f35b610191600480360381019061018c9190611eec565b610578565b60405161019e9190611f47565b60405180910390f35b6101af61059b565b6040516101bc9190611f71565b60405180910390f35b6101df60048036038101906101da9190611f8c565b6105a5565b6040516101ec9190611f47565b60405180910390f35b6101fd6105d4565b60405161020a9190611ffb565b60405180910390f35b61022d60048036038101906102289190612016565b6105dd565b60405161023a9190611f71565b60405180910390f35b61025d6004803603810190610258919061218b565b610707565b005b61027960048036038101906102749190612016565b610933565b60405161028691906121e3565b60405180910390f35b6102a960048036038101906102a491906121fe565b610969565b6040516102b69190611f71565b60405180910390f35b6102d960048036038101906102d49190612251565b610ab4565b6040516102e69190611f71565b60405180910390f35b6102f7610afc565b005b610301610b10565b60405161030e9190611f71565b60405180910390f35b61031f610bb0565b60405161032c91906121e3565b60405180910390f35b61033d610bda565b60405161034a9190611e2c565b60405180910390f35b61036d600480360381019061036891906121fe565b610c6c565b60405161037a9190611f71565b60405180910390f35b61039d60048036038101906103989190611eec565b610ec4565b6040516103aa9190611f47565b60405180910390f35b6103cd60048036038101906103c8919061227e565b610ee7565b6040516103da9190611d7a565b60405180910390f35b6103fd60048036038101906103f891906122da565b611222565b60405161040a9190611f71565b60405180910390f35b61041b6112a9565b6040516104289190611f71565b60405180910390f35b61044b60048036038101906104469190612251565b6112af565b005b60606000600367ffffffffffffffff81111561046c5761046b612048565b5b60405190808252806020026020018201604052801561049a5781602001602082028036833780820191505090505b50905060005b60038110156104de576104b2816105dd565b8282815181106104c5576104c461231a565b5b60200260200101818152505080806001019150506104a0565b508091505090565b6060600380546104f590612378565b80601f016020809104026020016040519081016040528092919081815260200182805461052190612378565b801561056e5780601f106105435761010080835404028352916020019161056e565b820191906000526020600020905b81548152906001019060200180831161055157829003601f168201915b5050505050905090565b600080610583611335565b905061059081858561133d565b600191505092915050565b6000600254905090565b6000806105b0611335565b90506105bd85828561134f565b6105c88585856113e4565b60019150509392505050565b60006012905090565b60008073ffffffffffffffffffffffffffffffffffffffff166006836003811061060a5761060961231a565b5b0160009054906101000a900473ffffffffffffffffffffffffffffffffffffffff1673ffffffffffffffffffffffffffffffffffffffff16036106505760009050610702565b600682600381106106645761066361231a565b5b0160009054906101000a900473ffffffffffffffffffffffffffffffffffffffff1673ffffffffffffffffffffffffffffffffffffffff166370a08231306040518263ffffffff1660e01b81526004016106be91906121e3565b602060405180830381865afa1580156106db573d6000803e3d6000fd5b505050506040513d601f19601f820116820180604052508101906106ff91906123be565b90505b919050565b600381511461074b576040517f08c379a000000000000000000000000000000000000000000000000000000000815260040161074290612437565b60405180910390fd5b6000805b60038110156108e157600083828151811061076d5761076c61231a565b5b602002602001015111156108d457600073ffffffffffffffffffffffffffffffffffffffff16600682600381106107a7576107a661231a565b5b0160009054906101000a900473ffffffffffffffffffffffffffffffffffffffff1673ffffffffffffffffffffffffffffffffffffffff160361081f576040517f08c379a0000000000000000000000000000000000000000000000000000000008152600401610816906124a3565b60405180910390fd5b61089b33308584815181106108375761083661231a565b5b6020026020010151600685600381106108535761085261231a565b5b0160009054906101000a900473ffffffffffffffffffffffffffffffffffffffff1673ffffffffffffffffffffffffffffffffffffffff166114d8909392919063ffffffff16565b64e8d4a510008382815181106108b4576108b361231a565b5b60200260200101516108c691906124f2565b826108d19190612534565b91505b808060010191505061074f565b5060008111610925576040517f08c379a000000000000000000000000000000000000000000000000000000000815260040161091c906125b4565b60405180910390fd5b61092f338261152d565b5050565b6006816003811061094357600080fd5b016000915054906101000a900473ffffffffffffffffffffffffffffffffffffffff1681565b60008073ffffffffffffffffffffffffffffffffffffffff16600685600381106109965761099561231a565b5b0160009054906101000a900473ffffffffffffffffffffffffffffffffffffffff1673ffffffffffffffffffffffffffffffffffffffff1614158015610a3e5750600073ffffffffffffffffffffffffffffffffffffffff1660068460038110610a0357610a0261231a565b5b0160009054906101000a900473ffffffffffffffffffffffffffffffffffffffff1673ffffffffffffffffffffffffffffffffffffffff1614155b610a7d576040517f08c379a0000000000000000000000000000000000000000000000000000000008152600401610a7490612620565b60405180910390fd5b6000612710600954612710610a929190612640565b84610a9d91906124f2565b610aa791906126a3565b9050809150509392505050565b60008060008373ffffffffffffffffffffffffffffffffffffffff1673ffffffffffffffffffffffffffffffffffffffff168152602001908152602001600020549050919050565b610b046115af565b610b0e6000611636565b565b6000806000905060005b6003811015610ba857600073ffffffffffffffffffffffffffffffffffffffff1660068260038110610b4f57610b4e61231a565b5b0160009054906101000a900473ffffffffffffffffffffffffffffffffffffffff1673ffffffffffffffffffffffffffffffffffffffff1614610b9b578180610b97906126d4565b9250505b8080600101915050610b1a565b508091505090565b6000600560009054906101000a900473ffffffffffffffffffffffffffffffffffffffff16905090565b606060048054610be990612378565b80601f0160208091040260200160405190810160405280929190818152602001828054610c1590612378565b8015610c625780601f10610c3757610100808354040283529160200191610c62565b820191906000526020600020905b815481529060010190602001808311610c4557829003601f168201915b5050505050905090565b60008073ffffffffffffffffffffffffffffffffffffffff1660068560038110610c9957610c9861231a565b5b0160009054906101000a900473ffffffffffffffffffffffffffffffffffffffff1673ffffffffffffffffffffffffffffffffffffffff1614158015610d415750600073ffffffffffffffffffffffffffffffffffffffff1660068460038110610d0657610d0561231a565b5b0160009054906101000a900473ffffffffffffffffffffffffffffffffffffffff1673ffffffffffffffffffffffffffffffffffffffff1614155b610d80576040517f08c379a0000000000000000000000000000000000000000000000000000000008152600401610d7790612620565b60405180910390fd5b6000612710600954612710610d959190612640565b84610da091906124f2565b610daa91906126a3565b905080610db6856105dd565b1015610df7576040517f08c379a0000000000000000000000000000000000000000000000000000000008152600401610dee90612768565b60405180910390fd5b610e5933308560068960038110610e1157610e1061231a565b5b0160009054906101000a900473ffffffffffffffffffffffffffffffffffffffff1673ffffffffffffffffffffffffffffffffffffffff166114d8909392919063ffffffff16565b610eb9338260068760038110610e7257610e7161231a565b5b0160009054906101000a900473ffffffffffffffffffffffffffffffffffffffff1673ffffffffffffffffffffffffffffffffffffffff166116fc9092919063ffffffff16565b809150509392505050565b600080610ecf611335565b9050610edc8185856113e4565b600191505092915050565b606082610ef333610ab4565b1015610f34576040517f08c379a0000000000000000000000000000000000000000000000000000000008152600401610f2b906127d4565b60405180910390fd5b6003825114610f78576040517f08c379a0000000000000000000000000000000000000000000000000000000008152600401610f6f90612840565b60405180910390fd5b6000610f8261059b565b90506000600367ffffffffffffffff811115610fa157610fa0612048565b5b604051908082528060200260200182016040528015610fcf5781602001602082028036833780820191505090505b509050610fdc338661174f565b60005b600381101561121657600073ffffffffffffffffffffffffffffffffffffffff16600682600381106110145761101361231a565b5b0160009054906101000a900473ffffffffffffffffffffffffffffffffffffffff1673ffffffffffffffffffffffffffffffffffffffff1614611209576000600682600381106110675761106661231a565b5b0160009054906101000a900473ffffffffffffffffffffffffffffffffffffffff1673ffffffffffffffffffffffffffffffffffffffff166370a08231306040518263ffffffff1660e01b81526004016110c191906121e3565b602060405180830381865afa1580156110de573d6000803e3d6000fd5b505050506040513d601f19601f8201168201806040525081019061110291906123be565b9050600084888361111391906124f2565b61111d91906126a3565b90508683815181106111325761113161231a565b5b602002602001015181101561117c576040517f08c379a0000000000000000000000000000000000000000000000000000000008152600401611173906128ac565b60405180910390fd5b6000811115611206576111e533826006866003811061119e5761119d61231a565b5b0160009054906101000a900473ffffffffffffffffffffffffffffffffffffffff1673ffffffffffffffffffffffffffffffffffffffff166116fc9092919063ffffffff16565b808484815181106111f9576111f861231a565b5b6020026020010181815250505b50505b8080600101915050610fdf565b50809250505092915050565b6000600160008473ffffffffffffffffffffffffffffffffffffffff1673ffffffffffffffffffffffffffffffffffffffff16815260200190815260200160002060008373ffffffffffffffffffffffffffffffffffffffff1673ffffffffffffffffffffffffffffffffffffffff16815260200190815260200160002054905092915050565b60095481565b6112b76115af565b600073ffffffffffffffffffffffffffffffffffffffff168173ffffffffffffffffffffffffffffffffffffffff16036113295760006040517f1e4fbdf700000000000000000000000000000000000000000000000000000000815260040161132091906121e3565b60405180910390fd5b61133281611636565b50565b600033905090565b61134a83838360016117d1565b505050565b600061135b8484611222565b90507fffffffffffffffffffffffffffffffffffffffffffffffffffffffffffffffff8110156113de57818110156113ce578281836040517ffb8f41b20000000000000000000000000000000000000000000000000000000081526004016113c5939291906128cc565b60405180910390fd5b6113dd848484840360006117d1565b5b50505050565b600073ffffffffffffffffffffffffffffffffffffffff168373ffffffffffffffffffffffffffffffffffffffff16036114565760006040517f96c6fd1e00000000000000000000000000000000000000000000000000000000815260040161144d91906121e3565b60405180910390fd5b600073ffffffffffffffffffffffffffffffffffffffff168273ffffffffffffffffffffffffffffffffffffffff16036114c85760006040517fec442f050000000000000000000000000000000000000000000000000000000081526004016114bf91906121e3565b60405180910390fd5b6114d38383836119a8565b505050565b6114e6848484846001611bcd565b61152757836040517f5274afe700000000000000000000000000000000000000000000000000000000815260040161151e91906121e3565b60405180910390fd5b50505050565b600073ffffffffffffffffffffffffffffffffffffffff168273ffffffffffffffffffffffffffffffffffffffff160361159f5760006040517fec442f0500000000000000000000000000000000000000000000000000000000815260040161159691906121e3565b60405180910390fd5b6115ab600083836119a8565b5050565b6115b7611335565b73ffffffffffffffffffffffffffffffffffffffff166115d5610bb0565b73ffffffffffffffffffffffffffffffffffffffff1614611634576115f8611335565b6040517f118cdaa700000000000000000000000000000000000000000000000000000000815260040161162b91906121e3565b60405180910390fd5b565b6000600560009054906101000a900473ffffffffffffffffffffffffffffffffffffffff16905081600560006101000a81548173ffffffffffffffffffffffffffffffffffffffff021916908373ffffffffffffffffffffffffffffffffffffffff1602179055508173ffffffffffffffffffffffffffffffffffffffff168173ffffffffffffffffffffffffffffffffffffffff167f8be0079c531659141344cd1fd0a4f28419497f9722a3daafe3b4186f6b6457e060405160405180910390a35050565b6117098383836001611c48565b61174a57826040517f5274afe700000000000000000000000000000000000000000000000000000000815260040161174191906121e3565b60405180910390fd5b505050565b600073ffffffffffffffffffffffffffffffffffffffff168273ffffffffffffffffffffffffffffffffffffffff16036117c15760006040517f96c6fd1e0000000000000000000000000000000000000000000000000000000081526004016117b891906121e3565b60405180910390fd5b6117cd826000836119a8565b5050565b600073ffffffffffffffffffffffffffffffffffffffff168473ffffffffffffffffffffffffffffffffffffffff16036118435760006040517fe602df0500000000000000000000000000000000000000000000000000000000815260040161183a91906121e3565b60405180910390fd5b600073ffffffffffffffffffffffffffffffffffffffff168373ffffffffffffffffffffffffffffffffffffffff16036118b55760006040517f94280d620000000000000000000000000000000000000000000000000000000081526004016118ac91906121e3565b60405180910390fd5b81600160008673ffffffffffffffffffffffffffffffffffffffff1673ffffffffffffffffffffffffffffffffffffffff16815260200190815260200160002060008573ffffffffffffffffffffffffffffffffffffffff1673ffffffffffffffffffffffffffffffffffffffff1681526020019081526020016000208190555080156119a2578273ffffffffffffffffffffffffffffffffffffffff168473ffffffffffffffffffffffffffffffffffffffff167f8c5be1e5ebec7d5bd14f71427d1e84f3dd0314c0f7b2291e5b200ac8c7c3b925846040516119999190611f71565b60405180910390a35b50505050565b600073ffffffffffffffffffffffffffffffffffffffff168373ffffffffffffffffffffffffffffffffffffffff16036119fa5780600260008282546119ee9190612534565b92505081905550611acd565b60008060008573ffffffffffffffffffffffffffffffffffffffff1673ffffffffffffffffffffffffffffffffffffffff16815260200190815260200160002054905081811015611a86578381836040517fe450d38c000000000000000000000000000000000000000000000000000000008152600401611a7d939291906128cc565b60405180910390fd5b8181036000808673ffffffffffffffffffffffffffffffffffffffff1673ffffffffffffffffffffffffffffffffffffffff16815260200190815260200160002081905550505b600073ffffffffffffffffffffffffffffffffffffffff168273ffffffffffffffffffffffffffffffffffffffff1603611b165780600260008282540392505081905550611b63565b806000808473ffffffffffffffffffffffffffffffffffffffff1673ffffffffffffffffffffffffffffffffffffffff168152602001908152602001600020600082825401925050819055505b8173ffffffffffffffffffffffffffffffffffffffff168373ffffffffffffffffffffffffffffffffffffffff167fddf252ad1be2c89b69c2b068fc378daa952ba7f163c4a11628f55a4df523b3ef83604051611bc09190611f71565b60405180910390a3505050565b6000806323b872dd60e01b90506040518160005260001960601c871660045260001960601c8616602452846044526020600060646000808c5af192506001600051148316611c34578383151615611c27573d6000823e3d81fd5b6000883b113d1516831692505b806040526000606052505095945050505050565b60008063a9059cbb60e01b90506040518160005260001960601c8616600452846024526020600060446000808b5af192506001600051148316611ca4578383151615611c97573d6000823e3d81fd5b6000873b113d1516831692505b806040525050949350505050565b600081519050919050565b600082825260208201905092915050565b6000819050602082019050919050565b6000819050919050565b611cf181611cde565b82525050565b6000611d038383611ce8565b60208301905092915050565b6000602082019050919050565b6000611d2782611cb2565b611d318185611cbd565b9350611d3c83611cce565b8060005b83811015611d6d578151611d548882611cf7565b9750611d5f83611d0f565b925050600181019050611d40565b5085935050505092915050565b60006020820190508181036000830152611d948184611d1c565b905092915050565b600081519050919050565b600082825260208201905092915050565b60005b83811015611dd6578082015181840152602081019050611dbb565b60008484015250505050565b6000601f19601f8301169050919050565b6000611dfe82611d9c565b611e088185611da7565b9350611e18818560208601611db8565b611e2181611de2565b840191505092915050565b60006020820190508181036000830152611e468184611df3565b905092915050565b6000604051905090565b600080fd5b600080fd5b600073ffffffffffffffffffffffffffffffffffffffff82169050919050565b6000611e8d82611e62565b9050919050565b611e9d81611e82565b8114611ea857600080fd5b50565b600081359050611eba81611e94565b92915050565b611ec981611cde565b8114611ed457600080fd5b50565b600081359050611ee681611ec0565b92915050565b60008060408385031215611f0357611f02611e58565b5b6000611f1185828601611eab565b9250506020611f2285828601611ed7565b9150509250929050565b60008115159050919050565b611f4181611f2c565b82525050565b6000602082019050611f5c6000830184611f38565b92915050565b611f6b81611cde565b82525050565b6000602082019050611f866000830184611f62565b92915050565b600080600060608486031215611fa557611fa4611e58565b5b6000611fb386828701611eab565b9350506020611fc486828701611eab565b9250506040611fd586828701611ed7565b9150509250925092565b600060ff82169050919050565b611ff581611fdf565b82525050565b60006020820190506120106000830184611fec565b92915050565b60006020828403121561202c5761202b611e58565b5b600061203a84828501611ed7565b91505092915050565b600080fd5b7f4e487b7100000000000000000000000000000000000000000000000000000000600052604160045260246000fd5b61208082611de2565b810181811067ffffffffffffffff8211171561209f5761209e612048565b5b80604052505050565b60006120b2611e4e565b90506120be8282612077565b919050565b600067ffffffffffffffff8211156120de576120dd612048565b5b602082029050602081019050919050565b600080fd5b6000612107612102846120c3565b6120a8565b9050808382526020820190506020840283018581111561212a576121296120ef565b5b835b81811015612153578061213f8882611ed7565b84526020840193505060208101905061212c565b5050509392505050565b600082601f83011261217257612171612043565b5b81356121828482602086016120f4565b91505092915050565b6000602082840312156121a1576121a0611e58565b5b600082013567ffffffffffffffff8111156121bf576121be611e5d565b5b6121cb8482850161215d565b91505092915050565b6121dd81611e82565b82525050565b60006020820190506121f860008301846121d4565b92915050565b60008060006060848603121561221757612216611e58565b5b600061222586828701611ed7565b935050602061223686828701611ed7565b925050604061224786828701611ed7565b9150509250925092565b60006020828403121561226757612266611e58565b5b600061227584828501611eab565b91505092915050565b6000806040838503121561229557612294611e58565b5b60006122a385828601611ed7565b925050602083013567ffffffffffffffff8111156122c4576122c3611e5d565b5b6122d08582860161215d565b9150509250929050565b600080604083850312156122f1576122f0611e58565b5b60006122ff85828601611eab565b925050602061231085828601611eab565b9150509250929050565b7f4e487b7100000000000000000000000000000000000000000000000000000000600052603260045260246000fd5b7f4e487b7100000000000000000000000000000000000000000000000000000000600052602260045260246000fd5b6000600282049050600182168061239057607f821691505b6020821081036123a3576123a2612349565b5b50919050565b6000815190506123b881611ec0565b92915050565b6000602082840312156123d4576123d3611e58565b5b60006123e2848285016123a9565b91505092915050565b7f416d6f756e7473206d757374206265206c656e67746820330000000000000000600082015250565b6000612421601883611da7565b915061242c826123eb565b602082019050919050565b6000602082019050818103600083015261245081612414565b9050919050565b7f546f6b656e206e6f7420737570706f7274656400000000000000000000000000600082015250565b600061248d601383611da7565b915061249882612457565b602082019050919050565b600060208201905081810360008301526124bc81612480565b9050919050565b7f4e487b7100000000000000000000000000000000000000000000000000000000600052601160045260246000fd5b60006124fd82611cde565b915061250883611cde565b925082820261251681611cde565b9150828204841483151761252d5761252c6124c3565b5b5092915050565b600061253f82611cde565b915061254a83611cde565b9250828201905080821115612562576125616124c3565b5b92915050565b7f4e6f206c69717569646974792061646465640000000000000000000000000000600082015250565b600061259e601283611da7565b91506125a982612568565b602082019050919050565b600060208201905081810360008301526125cd81612591565b9050919050565b7f496e76616c696420746f6b656e20696e64657800000000000000000000000000600082015250565b600061260a601383611da7565b9150612615826125d4565b602082019050919050565b60006020820190508181036000830152612639816125fd565b9050919050565b600061264b82611cde565b915061265683611cde565b925082820390508181111561266e5761266d6124c3565b5b92915050565b7f4e487b7100000000000000000000000000000000000000000000000000000000600052601260045260246000fd5b60006126ae82611cde565b91506126b983611cde565b9250826126c9576126c8612674565b5b828204905092915050565b60006126df82611cde565b91507fffffffffffffffffffffffffffffffffffffffffffffffffffffffffffffffff8203612711576127106124c3565b5b600182019050919050565b7f496e73756666696369656e74206c697175696469747900000000000000000000600082015250565b6000612752601683611da7565b915061275d8261271c565b602082019050919050565b6000602082019050818103600083015261278181612745565b9050919050565b7f496e73756666696369656e74204c502062616c616e6365000000000000000000600082015250565b60006127be601783611da7565b91506127c982612788565b602082019050919050565b600060208201905081810360008301526127ed816127b1565b9050919050565b7f6d696e5f616d6f756e7473206d757374206265206c656e677468203300000000600082015250565b600061282a601c83611da7565b9150612835826127f4565b602082019050919050565b600060208201905081810360008301526128598161281d565b9050919050565b7f536c697070616765206572726f72000000000000000000000000000000000000600082015250565b6000612896600e83611da7565b91506128a182612860565b602082019050919050565b600060208201905081810360008301526128c581612889565b9050919050565b60006060820190506128e160008301866121d4565b6128ee6020830185611f62565b6128fb6040830184611f62565b94935050505056fea26469706673582212201666fc3ed560b715dd7f79e012035a3cd824de757c7a67134b3fda9f4e21ddea64736f6c63430008180033",
  "linkReferences": {},
  "deployedLinkReferences": {}
}